:020000040000fa
:080000000002040000000000f2
:020000040000fa
:0400080032030000bf
:020000040000fa
:04000c0032030000bb
:020000040000fa
:0400100032030000b7
:020000040000fa
:0400140032030000b3
:020000040000fa
:0400180032030000af
:020000040000fa
:04001c0032030000ab
:020000040000fa
:0400200032030000a7
:020000040000fa
:0400240032030000a3
:020000040000fa
:04002800320300009f
:020000040000fa
:04002c00320300009b
:020000040000fa
:040030003203000097
:020000040000fa
:040034003203000093
:020000040000fa
:04003800320300008f
:020000040000fa
:04003c00320300008b
:020000040000fa
:040040003203000087
:020000040000fa
:04004400e6020000d0
:020000040000fa
:04004800320300007f
:020000040000fa
:04004c00320300007b
:020000040000fa
:040050003203000077
:020000040000fa
:040054003203000073
:020000040000fa
:04005800320300006f
:020000040000fa
:04005c00320300006b
:020000040000fa
:040060003203000067
:020000040000fa
:040064003203000063
:020000040000fa
:04006800320300005f
:020000040000fa
:04006c00320300005b
:020000040000fa
:040070003203000057
:020000040000fa
:040074000a0300007b
:020000040000fa
:04007800320300004f
:020000040000fa
:04007c00320300004b
:020000040000fa
:040080003203000047
:020000040000fa
:040084003203000043
:020000040000fa
:04008800320300003f
:020000040000fa
:04008c00320300003b
:020000040000fa
:040090003203000037
:020000040000fa
:040094003203000033
:020000040000fa
:04009800320300002f
:020000040000fa
:04009c00320300002b
:020000040000fa
:0400a000c802000092
:020000040000fa
:0400a400de02000078
:020000040000fa
:0400a800320300001f
:020000040000fa
:0400ac00320300001b
:020000040000fa
:0400b0003203000017
:020000040000fa
:0400b4003203000013
:020000040000fa
:0400b800320300000f
:020000040000fa
:0400bc00320300000b
:020000040000fa
:0400c0003203000007
:020000040000fa
:0400c4003203000003
:020000040000fa
:0400c80032030000ff
:020000040000fa
:0400cc0032030000fb
:020000040000fa
:0400d00032030000f7
:020000040000fa
:0400d40032030000f3
:020000040000fa
:0400d80032030000ef
:020000040000fa
:0400dc0032030000eb
:020000040000fa
:0400e00032030000e7
:020000040000fa
:0400e40032030000e3
:020000040000fa
:0400e80032030000df
:020000040000fa
:0400ec0032030000db
:020000040000fa
:0400f00032030000d7
:020000040000fa
:0400f40032030000d3
:020000040000fa
:0400f80032030000cf
:020000040000fa
:0400fc0032030000cb
:020000040000fa
:0401000032030000c6
:020000040000fa
:0401040032030000c2
:020000040000fa
:0401080032030000be
:020000040000fa
:04010c0032030000ba
:020000040000fa
:0401100032030000b6
:020000040000fa
:0401140032030000b2
:020000040000fa
:0401180032030000ae
:020000040000fa
:04011c0032030000aa
:020000040000fa
:0401200032030000a6
:020000040000fa
:0401240032030000a2
:020000040000fa
:04012800320300009e
:020000040000fa
:04012c00320300009a
:020000040000fa
:040130003203000096
:020000040000fa
:040134003203000092
:020000040000fa
:04013800320300008e
:020000040000fa
:04013c00320300008a
:020000040000fa
:040140003203000086
:020000040000fa
:040144003203000082
:020000040000fa
:04014800320300007e
:020000040000fa
:04014c00320300007a
:020000040000fa
:040150003203000076
:020000040000fa
:040154003203000072
:020000040000fa
:04015800320300006e
:020000040000fa
:04015c00320300006a
:020000040000fa
:0402080032030000bd
:020000040000fa
:04020c0032030000b9
:020000040000fa
:0402100032030000b5
:020000040000fa
:0402140032030000b1
:020000040000fa
:0402180032030000ad
:020000040000fa
:04021c0032030000a9
:020000040000fa
:0402200032030000a5
:020000040000fa
:0402240032030000a1
:020000040000fa
:04022800320300009d
:020000040000fa
:04022c003203000099
:020000040000fa
:040230003203000095
:020000040000fa
:040234003203000091
:020000040000fa
:04023800320300008d
:020000040000fa
:04023c003203000089
:020000040000fa
:040240003203000085
:020000040000fa
:04024400e6020000ce
:020000040000fa
:04024800320300007d
:020000040000fa
:04024c003203000079
:020000040000fa
:040250003203000075
:020000040000fa
:040254003203000071
:020000040000fa
:04025800320300006d
:020000040000fa
:04025c003203000069
:020000040000fa
:040260003203000065
:020000040000fa
:040264003203000061
:020000040000fa
:04026800320300005d
:020000040000fa
:04026c003203000059
:020000040000fa
:040270003203000055
:020000040000fa
:040274000a03000079
:020000040000fa
:04027800320300004d
:020000040000fa
:04027c003203000049
:020000040000fa
:040280003203000045
:020000040000fa
:040284003203000041
:020000040000fa
:04028800320300003d
:020000040000fa
:04028c003203000039
:020000040000fa
:040290003203000035
:020000040000fa
:040294003203000031
:020000040000fa
:04029800320300002d
:020000040000fa
:04029c003203000029
:020000040000fa
:0402a000c802000090
:020000040000fa
:0402a400de02000076
:020000040000fa
:0402a800320300001d
:020000040000fa
:0402ac003203000019
:020000040000fa
:0402b0003203000015
:020000040000fa
:0402b4003203000011
:020000040000fa
:0402b800320300000d
:020000040000fa
:0402bc003203000009
:020000040000fa
:0402c0003203000005
:020000040000fa
:0402c4003203000001
:020000040000fa
:0402c80032030000fd
:020000040000fa
:0402cc0032030000f9
:020000040000fa
:0402d00032030000f5
:020000040000fa
:0402d40032030000f1
:020000040000fa
:0402d80032030000ed
:020000040000fa
:0402dc0032030000e9
:020000040000fa
:0402e00032030000e5
:020000040000fa
:0402e40032030000e1
:020000040000fa
:0402e80032030000dd
:020000040000fa
:0402ec0032030000d9
:020000040000fa
:0402f00032030000d5
:020000040000fa
:0402f40032030000d1
:020000040000fa
:0402f80032030000cd
:020000040000fa
:0402fc0032030000c9
:020000040000fa
:0403000032030000c4
:020000040000fa
:0403040032030000c0
:020000040000fa
:0403080032030000bc
:020000040000fa
:04030c0032030000b8
:020000040000fa
:0403100032030000b4
:020000040000fa
:0403140032030000b0
:020000040000fa
:0403180032030000ac
:020000040000fa
:04031c0032030000a8
:020000040000fa
:0403200032030000a4
:020000040000fa
:0403240032030000a0
:020000040000fa
:04032800320300009c
:020000040000fa
:04032c003203000098
:020000040000fa
:040330003203000094
:020000040000fa
:040334003203000090
:020000040000fa
:04033800320300008c
:020000040000fa
:04033c003203000088
:020000040000fa
:040340003203000084
:020000040000fa
:040344003203000080
:020000040000fa
:04034800320300007c
:020000040000fa
:04034c003203000078
:020000040000fa
:040350003203000074
:020000040000fa
:040354003203000070
:020000040000fa
:04035800320300006c
:020000040000fa
:04035c003203000068
:020000040000fa
:100400004f8120000edf20000e0188000000000058
:10041000000020000000e000020032000001200087
:100420002002880014000700900007000000e00090
:1004300003003a002099200001002000020037004c
:100440000000200001002000810f70000100320038
:1004500014000700000020000000e000020032004d
:10046000000002000000000000090200000000007f
:100470000040da000000fe004440a90020152000e2
:100480000000e0000300320000002000a00188000e
:100490004440a800000006008a1f78008b1f7800e7
:1004a0000000060091018800800478000000eb0045
:1004b0001a003700e284440032a0b4009905ba0063
:1004c000e284440032a0b4009906ba00e2844400f9
:1004d00032a0b4000006eb00476fde00fd07b2005b
:1004e000636ce10003003a00ebff07000000eb0043
:1004f0000a003700606ce10004003a00005deb0088
:100500008b05e900fdff3e00040037006168e10053
:10051000010032000086eb000b00070019c7ba008b
:100520001905ba000e04e00003003a000a00e000da
:10053000e0ff3a0000000600fe07b2009e018800be
:100540008a047800f5ff3700395dba008b05e900b1
:100550000c003200295dba008b05e900080032006a
:100560000c00e00003003a00e284440032a0b40032
:10057000f5ff370019ddba008b05e900faff3a00f4
:100580008904e800e184440032a0b40000000600c1
:10059000801f78000000fa0087c0a900b011800019
:1005a0000040780010e8b70010c0b30011e8b700b1
:1005b0000080fa004f007800004006000000fa00ba
:1005c00087e0a9000080fa0000400600809fbe007e
:1005d0000000fa0084e0a900601680004800de00f8
:1005e000614060000004a200614060000080fb00e8
:1005f000610060004800dd00611680000180a100fc
:1006000001007000601688000080fa004f00be00f4
:1006100000400600801f78000000fa008660a900f4
:1006200010168000640060000000e0000800320046
:1006300010168000700060000000e000040032002e
:1006400050168000700060000000e00002003a00d8
:1006500010002000904088000080fa004f007800d1
:10066000004006000040da000000fe000000050027
:1006700080007800040037003104e00002003a00f6
:100680000000510000000600010178000108a300ed
:10069000f9ff3a008101780031017800f4ef2f0072
:1006a000020242000281ea000201620004082800fe
:1006b00004016100f7ff3200830078000101780037
:1006c0003104e000fdff3a00000051000000060088
:020000040000fa
:1006d000537700006974000063680000696e0000d1
:1006e000672000005374000061740000652e000054
:1006f0002e2e00000a0d0000005300006c6f000059
:10070000772000004d6f0000646500003a20000073
:10071000494400004c4500000a0d0000004600005e
:1007200061730000742000004d6f000064650000dc
:100730003a2000005042000032200000616e0000ac
:10074000642000005042000033200000617200006d
:100750006520000070720000657300007365000082
:10076000640a00000d000000466100007374000080
:10077000204d00006f640000653a0000205000002a
:1007800042310000206100006e6400002050000033
:1007900042330000206100007265000020700000fc
:1007a0007265000073730000656400000a0d0000ac
:1007b0000046000061730000742000004d6f0000cf
:1007c000646500003a200000504200003120000023
:1007d000616e0000642000005042000032200000e2
:1007e00061720000652000007072000065730000f7
:1007f00073650000640a00000d00000046610000ff
:1008000073740000204d00006f640000653a000022
:1008100020490000444c0000450a00000d00000083
:100820004661000073740000204d00006f640000fa
:10083000653a0000205000004231000020490000cd
:1008400073200000507200006573000073650000a3
:10085000640a00000d00000046610000737400008f
:10086000204d00006f640000653a00002050000039
:100870004232000020490000732000005072000046
:100880006573000073650000640a00000d0000003d
:100890004661000073740000204d00006f6400008a
:1008a000653a00002050000042330000204900005b
:1008b0007320000050720000657300007365000033
:1008c000640a00000d000000536c00006f77000008
:1008d000204d00006f640000653a000020500000c9
:1008e00042310000204900007320000050720000d7
:1008f0006573000073650000640a00000d000000cd
:10090000536c00006f770000204d00006f64000002
:10091000653a0000205000004232000020490000eb
:1009200073200000507200006573000073650000c2
:10093000640a00000d0000004661000073740000ae
:10094000204d00006f640000653a0000204900005f
:10095000444c0000450a00000d0000000a7400002d
:100960006f6f0000206c00006f6e0000670a0000cf
:040970000d00000076
:020000040000fa
:100974000000fa0003003700704080000000e80027
:100984007040880071408000d02e2000808f50007d
:10099400f9ff36000e28ef00101680004200de003a
:1009a400614060000080fb00004088001016800059
:1009b4004400de00614060000080fb0010408800bd
:1009c400501680004400de00614060000080fb009f
:1009d40020408800604080000000e000c2003a002f
:1009e40001408000104080008100700020408000a1
:1009f400010070000000e0000a003a008036280080
:100a040045010700d03728004301070011e1a90080
:100a1400cd02a900100020006040880012020700e7
:100a24001a0207000040800000f0a7000000ea005e
:100a34000000e9004f00de00804078001040800094
:100a440000f0a7000000ea000000e9004f00de000b
:100a54000040780000c060008080fb0020408000df
:100a6400808060000040800000f0a7000000ea00e1
:100a74000000e9004f00de00124080000201600027
:100a84002040800000f0a7000000ea000000e90018
:100a94004f00de0000006100810070001040800003
:100aa40000f0a7000000ea000000e9004f00de00ab
:100ab40002408000020160002040800000f0a70096
:100ac4000000ea000000e9004f00de0000006100c1
:100ad400010070000000e0001300320011e1a900e1
:100ae400cd02a800ef010700004080000000e000f4
:100af40002003200f038280007010700104080008f
:100b04000000e00002003200403b28000201070020
:100b1400204080000000e00002003200903d2800e8
:100b2400fd000700d00107000040800000f0a7008e
:100b34000000ea000000e9004f00de0031408000c0
:100b4400010060000000e00006003200cf01070051
:100b5400e03f2800f000070011e1a900cd02a90040
:100b6400160037000040800000f0a7000000ea00f3
:100b74000000e9004f00de00804078003040800033
:100b840000f0a7000000ea000000e9004f00de00ca
:100b94000040780000c060000004e000070032005c
:100ba40000412800dc000700b8010700400f2000c6
:100bb400c50107001000200030408800104080006c
:100bc40000f0a7000000ea000000e9004f00de008a
:100bd40041408000010060000000e0000600320097
:100be400aa010700e03f2800cb00070011e1a9009b
:100bf400cd02a900160037001040800000f0a700c5
:100c04000000ea000000e9004f00de0080407800a8
:100c14004040800000f0a7000000ea000000e90066
:100c24004f00de000040780000c060000004e000d7
:100c340007003200c0422800b700070093010700f4
:100c4400801e2000a0010700100020004040880002
:100c54002040800000f0a7000000ea000000e90046
:100c64004f00de0051408000010060000000e00001
:100c74000600320085010700e03f2800a6000700b7
:100c840011e1a900cd02a9007100370020408000c5
:100c940000f0a7000000ea000000e9004f00de00b9
:100ca400804078005040800000f0a7000000ea0077
:100cb4000000e9004f00de000040780000c0600042
:100cc4000004e00062003200804428009200070023
:100cd4006e010700f03c20007b010700100020009b
:100ce400504088005a0037000140800010408000c6
:100cf4008100700020408000010070000000e000ce
:100d040009003a008036280083000700e03f2800ed
:100d14008100070011e1a900cd02a9000c28ef0011
:100d240051010700590107000040800000f0a700ae
:100d34000000ea000000e9004f00de0031408000be
:100d4400010060000000e000060032004f010700cf
:100d5400d03728007000070011e1a900cd02a900d6
:100d6400160037000040800000f0a7000000ea00f1
:100d74000000e9004f00de00804078003040800031
:100d840000f0a7000000ea000000e9004f00de00c8
:100d94000040780000c060000004e000070032005a
:100da400404628005c00070038010700b0302100ed
:100db40045010700100020003040880010408000ea
:100dc40000f0a7000000ea000000e9004f00de0088
:100dd40041408000010060000000e0000600320095
:100de4002a010700d03728004b00070011e1a900b1
:100df400cd02a900160037001040800000f0a700c3
:100e04000000ea000000e9004f00de0080407800a6
:100e14004040800000f0a7000000ea000000e90064
:100e24004f00de000040780000c060000004e000d5
:100e340007003200004828003700070013010700ac
:100e4400d0b6200020010700100020004040880098
:100e54000080fa00000006000000fa0031a2a90098
:100e64003182a9003162a90081118000f0cf2f00e6
:100e7400008060008011880030e2a90030c2a9001f
:100e840030a2a9003082a9003062a800811180003c
:100e940090ff2f0000806000801188003002a900bc
:100ea400c0002000c011880033e2a90033a2a800ca
:100eb40033c2a9003362a9003342a9009111800012
:100ec400f0f32f00008060009011880032a2a90086
:100ed40087e0a90091058000f0ff28008080600071
:100ee40000002300010070009005880097e0a8002e
:100ef40087c0a90091058000f08f2f00008060005a
:100f040000a0a0009005880097c0a80031e2a800c6
:100f14000080fa00000006000400fa0010079800a0
:100f24000000eb00000f7800060037001e00900060
:100f34001e00400010407800110020000700070048
:100f44001e0fe8001e009000c8fd07009e0f500011
:100f5400f6ff31000080fa00000006000400fa00e9
:100f6400004f7800110798003342a8000b003700a7
:100f7400000000009111800000202000008060002b
:100f84000000e000fbff3a001e00fb00a0118800f7
:100f94001e0090000000e900100798001e00900059
:100fa4000000e000f2ff3a00000000009111800010
:100fb40000102000008060000000e000fbff320011
:100fc4003342a9000080fa00000006000800fa007d
:100fd40020079800614798000000eb00000f78009c
:100fe4002100370011c8bf00e14f50001e003a0035
:100ff40010c8bf00ff4f50001800360001812000c8
:1010040091407800e0c7b30080cf500013003e0049
:101014006e4090000080fb000080e9009e0f5000ad
:1010240004003100e04a2800bbff07001168ef000c
:10103400100037002e0090001e00400001812000a7
:1010440091407800014878001e0fe80010c8bf00e6
:1010540011002000c1ff07003222a90010c8bf0000
:10106400204798001168ef002e409000ed4f50008b
:10107400dcff3a000080fa00000006000200fa00db
:101084001100200000c2b300b4ff07001b003700aa
:1010940011c8bf00e14f500018003a0010c8bf004b
:1010a400ed4f500003003a001168ef001e40780035
:1010b4001500370010c8bf00ff4f50000d00360068
:1010c4000181200091407800e0c7b30080cf500038
:1010d40008003e001100200080c0b3009fff0700fd
:1010e40010c8bf00004f780010c8bf0011002000d6
:1010f4009aff07003222a9001168ef001e40780011
:10110400ed4f5000e2ff3a000080fa0000000600b4
:101114000000fa0011028000000e2000010070009f
:1011240010028800213a8000f08f2f0000806000b8
:10113400203a88006206200080072000a1092000d0
:10114400337420008049780081497800824978000e
:101154001200200060042000710520002374200088
:101164008049780081497800824978004207a800c4
:1011740000000000103a8000610060000000e00000
:10118400fcff3a0011028000f0f12f0000806000a3
:10119400100288000080fa00000006000000fa0037
:1011a400c882a800c902a9004001200000168800d6
:1011b4000080eb0060198800cd02a9006800a80037
:1011c4006820a8006bc0a8006000a8006020a800e8
:1011d40063c0a80061058000f0ff280080806000e3
:1011e4000000260001007000600588008660a900e8
:1011f4009660a8000080fa00000006000000fa00d3
:10120400c3ff070014ff0700e4ff0700c0492800dc
:1012140041ff0700604080000000e000030032004e
:10122400e10f500008003200faff37000140fe00d1
:1012340090408000e10f500002003a001228ef00b5
:10124400cbfd0700070037000140fe0090408000fe
:10125400e10f500002003a001228ef00c4fd07001d
:1012640000000000ebff37000000fa00100020002f
:10127400004088001000200010408800100020006a
:10128400204088000080fa00000006000000fa00f8
:101294000628ef000828ef000a28ef000080fa0073
:1012a400000006000000fa00100020003040880012
:1012b40010002000404088001000200050408800aa
:1012c4000080fa00000006000200fa00000f780017
:1012d4001061a90081088000000320000100700053
:1012e400800888003105800000002700010070009c
:1012f4003005880084e0a90094e0a8001021a9002a
:1013040011a1a9009e007800610888000621ef0061
:1013140011e1a8000140fe000080fa000000060070
:020000040000fa
:101324001008000002000000000000000008000097
:101334000c00000000000000120800000200000081
:10134400000000000c080000040000000000000081
:041354000000000095
:020000040000fa
:0200000401f009
:04000c008700000069
:020000040000fa
:0200000401f009
:040010007f0000006d
:020000040000fa
:0200000401f009
:04001c00c20000001e
:00000001FF
